{
  "contractName": "Escrow",
  "abi": [
    {
      "inputs": [],
      "stateMutability": "nonpayable",
      "type": "constructor"
    },
    {
      "inputs": [],
      "name": "DISPUTE_TIMEOUT",
      "outputs": [
        {
          "internalType": "uint256",
          "name": "",
          "type": "uint256"
        }
      ],
      "stateMutability": "view",
      "type": "function"
    },
    {
      "inputs": [],
      "name": "contractOwner",
      "outputs": [
        {
          "internalType": "address",
          "name": "",
          "type": "address"
        }
      ],
      "stateMutability": "view",
      "type": "function"
    },
    {
      "inputs": [
        {
          "internalType": "string",
          "name": "",
          "type": "string"
        }
      ],
      "name": "escrows",
      "outputs": [
        {
          "internalType": "address",
          "name": "buyer",
          "type": "address"
        },
        {
          "internalType": "address",
          "name": "seller",
          "type": "address"
        },
        {
          "internalType": "uint256",
          "name": "buyerAmount",
          "type": "uint256"
        },
        {
          "internalType": "uint256",
          "name": "sellerAmount",
          "type": "uint256"
        },
        {
          "internalType": "string",
          "name": "orderId",
          "type": "string"
        },
        {
          "internalType": "bool",
          "name": "isConfirmedByBuyer",
          "type": "bool"
        },
        {
          "internalType": "bool",
          "name": "isConfirmedBySeller",
          "type": "bool"
        },
        {
          "internalType": "bool",
          "name": "isDisputed",
          "type": "bool"
        },
        {
          "internalType": "uint256",
          "name": "disputeTimestamp",
          "type": "uint256"
        },
        {
          "internalType": "string",
          "name": "disputeDetails",
          "type": "string"
        },
        {
          "internalType": "enum Escrow.State",
          "name": "currentState",
          "type": "uint8"
        }
      ],
      "stateMutability": "view",
      "type": "function"
    },
    {
      "inputs": [
        {
          "internalType": "uint256",
          "name": "",
          "type": "uint256"
        }
      ],
      "name": "orderIds",
      "outputs": [
        {
          "internalType": "string",
          "name": "",
          "type": "string"
        }
      ],
      "stateMutability": "view",
      "type": "function"
    },
    {
      "inputs": [],
      "name": "getAllOrderIds",
      "outputs": [
        {
          "internalType": "string[]",
          "name": "",
          "type": "string[]"
        }
      ],
      "stateMutability": "view",
      "type": "function"
    },
    {
      "inputs": [
        {
          "internalType": "address",
          "name": "_seller",
          "type": "address"
        },
        {
          "internalType": "uint256",
          "name": "_buyerAmount",
          "type": "uint256"
        },
        {
          "internalType": "uint256",
          "name": "_sellerAmount",
          "type": "uint256"
        },
        {
          "internalType": "string",
          "name": "_orderId",
          "type": "string"
        }
      ],
      "name": "createEscrow",
      "outputs": [],
      "stateMutability": "nonpayable",
      "type": "function"
    },
    {
      "inputs": [
        {
          "internalType": "string",
          "name": "_orderId",
          "type": "string"
        }
      ],
      "name": "deposit",
      "outputs": [],
      "stateMutability": "payable",
      "type": "function"
    },
    {
      "inputs": [
        {
          "internalType": "string",
          "name": "_orderId",
          "type": "string"
        }
      ],
      "name": "confirmReceipt",
      "outputs": [],
      "stateMutability": "nonpayable",
      "type": "function"
    },
    {
      "inputs": [
        {
          "internalType": "string",
          "name": "_orderId",
          "type": "string"
        }
      ],
      "name": "refund",
      "outputs": [],
      "stateMutability": "nonpayable",
      "type": "function"
    },
    {
      "inputs": [
        {
          "internalType": "string",
          "name": "_orderId",
          "type": "string"
        },
        {
          "internalType": "string",
          "name": "_disputeDetails",
          "type": "string"
        }
      ],
      "name": "dispute",
      "outputs": [],
      "stateMutability": "nonpayable",
      "type": "function"
    },
    {
      "inputs": [
        {
          "internalType": "string",
          "name": "_orderId",
          "type": "string"
        },
        {
          "internalType": "address",
          "name": "faultParty",
          "type": "address"
        }
      ],
      "name": "resolveDispute",
      "outputs": [],
      "stateMutability": "nonpayable",
      "type": "function"
    },
    {
      "inputs": [
        {
          "internalType": "string",
          "name": "_orderId",
          "type": "string"
        }
      ],
      "name": "getEscrowDetails",
      "outputs": [
        {
          "components": [
            {
              "internalType": "address",
              "name": "buyer",
              "type": "address"
            },
            {
              "internalType": "address",
              "name": "seller",
              "type": "address"
            },
            {
              "internalType": "uint256",
              "name": "buyerAmount",
              "type": "uint256"
            },
            {
              "internalType": "uint256",
              "name": "sellerAmount",
              "type": "uint256"
            },
            {
              "internalType": "string",
              "name": "orderId",
              "type": "string"
            },
            {
              "internalType": "bool",
              "name": "isConfirmedByBuyer",
              "type": "bool"
            },
            {
              "internalType": "bool",
              "name": "isConfirmedBySeller",
              "type": "bool"
            },
            {
              "internalType": "bool",
              "name": "isDisputed",
              "type": "bool"
            },
            {
              "internalType": "uint256",
              "name": "disputeTimestamp",
              "type": "uint256"
            },
            {
              "internalType": "string",
              "name": "disputeDetails",
              "type": "string"
            },
            {
              "internalType": "enum Escrow.State",
              "name": "currentState",
              "type": "uint8"
            }
          ],
          "internalType": "struct Escrow.EscrowDetails",
          "name": "",
          "type": "tuple"
        }
      ],
      "stateMutability": "view",
      "type": "function"
    }
  ],
  "bytecode": "0x608060405234801561000f575f80fd5b503360015f6101000a81548173ffffffffffffffffffffffffffffffffffffffff021916908373ffffffffffffffffffffffffffffffffffffffff1602179055506130e98061005d5f395ff3fe6080604052600436106100a6575f3560e01c8063683f31d311610063578063683f31d3146101d05780636a18c6e2146101f8578063a26e118614610220578063ce606ee01461023c578063dc90618214610266578063fe5f2e88146102a2576100a6565b80630e95dae9146100aa57806323722084146100d257806329a3a0d61461010e578063486265c6146101365780634b2b612a146101605780635cc9f8641461018a575b5f80fd5b3480156100b5575f80fd5b506100d060048036038101906100cb919061227c565b6102ca565b005b3480156100dd575f80fd5b506100f860048036038101906100f391906122f6565b610586565b604051610105919061239b565b60405180910390f35b348015610119575f80fd5b50610134600480360381019061012f9190612415565b61062c565b005b348015610141575f80fd5b5061014a610e1a565b604051610157919061247e565b60405180910390f35b34801561016b575f80fd5b50610174610e21565b604051610181919061259a565b60405180910390f35b348015610195575f80fd5b506101b060048036038101906101ab919061227c565b610ef5565b6040516101c79b9a99989796959493929190612656565b60405180910390f35b3480156101db575f80fd5b506101f660048036038101906101f1919061270d565b6110de565b005b348015610203575f80fd5b5061021e6004803603810190610219919061278d565b611362565b005b61023a6004803603810190610235919061227c565b6115f1565b005b348015610247575f80fd5b506102506118c1565b60405161025d9190612803565b60405180910390f35b348015610271575f80fd5b5061028c6004803603810190610287919061227c565b6118e6565b604051610299919061294b565b60405180910390f35b3480156102ad575f80fd5b506102c860048036038101906102c3919061227c565b611b8f565b005b5f60038111156102dd576102dc6125e3565b5b5f826040516102ec91906129a5565b90815260200160405180910390206008015f9054906101000a900460ff16600381111561031c5761031b6125e3565b5b14806103775750600380811115610336576103356125e3565b5b5f8260405161034591906129a5565b90815260200160405180910390206008015f9054906101000a900460ff166003811115610375576103746125e3565b5b145b6103b6576040517f08c379a00000000000000000000000000000000000000000000000000000000081526004016103ad90612a05565b60405180910390fd5b5f816040516103c591906129a5565b90815260200160405180910390205f015f9054906101000a900473ffffffffffffffffffffffffffffffffffffffff1673ffffffffffffffffffffffffffffffffffffffff163373ffffffffffffffffffffffffffffffffffffffff16036104645760015f8260405161043891906129a5565b90815260200160405180910390206005015f6101000a81548160ff021916908315150217905550610511565b5f8160405161047391906129a5565b90815260200160405180910390206001015f9054906101000a900473ffffffffffffffffffffffffffffffffffffffff1673ffffffffffffffffffffffffffffffffffffffff163373ffffffffffffffffffffffffffffffffffffffff16036105105760015f826040516104e791906129a5565b908152602001604051809103902060050160016101000a81548160ff0219169083151502179055505b5b5f8160405161052091906129a5565b90815260200160405180910390206005015f9054906101000a900460ff16801561057457505f8160405161055491906129a5565b908152602001604051809103902060050160019054906101000a900460ff165b156105835761058281611e44565b5b50565b60028181548110610595575f80fd5b905f5260205f20015f9150905080546105ad90612a50565b80601f01602080910402602001604051908101604052809291908181526020018280546105d990612a50565b80156106245780601f106105fb57610100808354040283529160200191610624565b820191905f5260205f20905b81548152906001019060200180831161060757829003601f168201915b505050505081565b60015f9054906101000a900473ffffffffffffffffffffffffffffffffffffffff1673ffffffffffffffffffffffffffffffffffffffff163373ffffffffffffffffffffffffffffffffffffffff16146106bb576040517f08c379a00000000000000000000000000000000000000000000000000000000081526004016106b290612af0565b60405180910390fd5b8160038060038111156106d1576106d06125e3565b5b5f836040516106e091906129a5565b90815260200160405180910390206008015f9054906101000a900460ff1660038111156107105761070f6125e3565b5b14610750576040517f08c379a000000000000000000000000000000000000000000000000000000000815260040161074790612a05565b60405180910390fd5b62093a805f8560405161076391906129a5565b90815260200160405180910390206006015461077f9190612b3b565b4210156107c1576040517f08c379a00000000000000000000000000000000000000000000000000000000081526004016107b890612bb8565b60405180910390fd5b5f80856040516107d191906129a5565b90815260200160405180910390206002015490505f80866040516107f591906129a5565b90815260200160405180910390206003015490505f805f808960405161081b91906129a5565b90815260200160405180910390205f015f9054906101000a900473ffffffffffffffffffffffffffffffffffffffff1673ffffffffffffffffffffffffffffffffffffffff168873ffffffffffffffffffffffffffffffffffffffff1603610a48575f848661088a9190612bd6565b90506064600a8261089b9190612c09565b6108a59190612c77565b93506064605a826108b69190612c09565b6108c09190612c77565b856108cb9190612b3b565b925060015f9054906101000a900473ffffffffffffffffffffffffffffffffffffffff1673ffffffffffffffffffffffffffffffffffffffff166108fc8590811502906040515f60405180830381858888f19350505050158015610931573d5f803e3d5ffd5b505f8a60405161094191906129a5565b90815260200160405180910390206001015f9054906101000a900473ffffffffffffffffffffffffffffffffffffffff1673ffffffffffffffffffffffffffffffffffffffff166108fc8490811502906040515f60405180830381858888f193505050501580156109b4573d5f803e3d5ffd5b505f8a6040516109c491906129a5565b90815260200160405180910390205f015f9054906101000a900473ffffffffffffffffffffffffffffffffffffffff1673ffffffffffffffffffffffffffffffffffffffff166108fc8583610a199190612bd6565b90811502906040515f60405180830381858888f19350505050158015610a41573d5f803e3d5ffd5b5050610d8f565b5f89604051610a5791906129a5565b90815260200160405180910390206001015f9054906101000a900473ffffffffffffffffffffffffffffffffffffffff1673ffffffffffffffffffffffffffffffffffffffff168873ffffffffffffffffffffffffffffffffffffffff1603610c61576064600a85610ac99190612c09565b610ad39190612c77565b92505f6064605a86610ae59190612c09565b610aef9190612c77565b905060015f9054906101000a900473ffffffffffffffffffffffffffffffffffffffff1673ffffffffffffffffffffffffffffffffffffffff166108fc8590811502906040515f60405180830381858888f19350505050158015610b55573d5f803e3d5ffd5b505f8a604051610b6591906129a5565b90815260200160405180910390206001015f9054906101000a900473ffffffffffffffffffffffffffffffffffffffff1673ffffffffffffffffffffffffffffffffffffffff166108fc8290811502906040515f60405180830381858888f19350505050158015610bd8573d5f803e3d5ffd5b505f8a604051610be891906129a5565b90815260200160405180910390205f015f9054906101000a900473ffffffffffffffffffffffffffffffffffffffff1673ffffffffffffffffffffffffffffffffffffffff166108fc8790811502906040515f60405180830381858888f19350505050158015610c5a573d5f803e3d5ffd5b5050610d8e565b8385610c6d9190612bd6565b90508385610c7b9190612bd6565b84610c869190612b3b565b91505f89604051610c9791906129a5565b90815260200160405180910390205f015f9054906101000a900473ffffffffffffffffffffffffffffffffffffffff1673ffffffffffffffffffffffffffffffffffffffff166108fc8290811502906040515f60405180830381858888f19350505050158015610d09573d5f803e3d5ffd5b505f89604051610d1991906129a5565b90815260200160405180910390206001015f9054906101000a900473ffffffffffffffffffffffffffffffffffffffff1673ffffffffffffffffffffffffffffffffffffffff166108fc8390811502906040515f60405180830381858888f19350505050158015610d8c573d5f803e3d5ffd5b505b5b60015f8a604051610da091906129a5565b90815260200160405180910390206008015f6101000a81548160ff02191690836003811115610dd257610dd16125e3565b5b02179055505f808a604051610de791906129a5565b908152602001604051809103902060050160026101000a81548160ff021916908315150217905550505050505050505050565b62093a8081565b60606002805480602002602001604051908101604052809291908181526020015f905b82821015610eec578382905f5260205f20018054610e6190612a50565b80601f0160208091040260200160405190810160405280929190818152602001828054610e8d90612a50565b8015610ed85780601f10610eaf57610100808354040283529160200191610ed8565b820191905f5260205f20905b815481529060010190602001808311610ebb57829003601f168201915b505050505081526020019060010190610e44565b50505050905090565b5f818051602081018201805184825260208301602085012081835280955050505050505f91509050805f015f9054906101000a900473ffffffffffffffffffffffffffffffffffffffff1690806001015f9054906101000a900473ffffffffffffffffffffffffffffffffffffffff1690806002015490806003015490806004018054610f8190612a50565b80601f0160208091040260200160405190810160405280929190818152602001828054610fad90612a50565b8015610ff85780601f10610fcf57610100808354040283529160200191610ff8565b820191905f5260205f20905b815481529060010190602001808311610fdb57829003601f168201915b505050505090806005015f9054906101000a900460ff16908060050160019054906101000a900460ff16908060050160029054906101000a900460ff169080600601549080600701805461104b90612a50565b80601f016020809104026020016040519081016040528092919081815260200182805461107790612a50565b80156110c25780601f10611099576101008083540402835291602001916110c2565b820191905f5260205f20905b8154815290600101906020018083116110a557829003601f168201915b505050505090806008015f9054906101000a900460ff1690508b565b6110e661209a565b33815f019073ffffffffffffffffffffffffffffffffffffffff16908173ffffffffffffffffffffffffffffffffffffffff168152505084816020019073ffffffffffffffffffffffffffffffffffffffff16908173ffffffffffffffffffffffffffffffffffffffff168152505083816040018181525050828160600181815250508181608001819052505f816101400190600381111561118b5761118a6125e3565b5b9081600381111561119f5761119e6125e3565b5b81525050805f836040516111b391906129a5565b90815260200160405180910390205f820151815f015f6101000a81548173ffffffffffffffffffffffffffffffffffffffff021916908373ffffffffffffffffffffffffffffffffffffffff1602179055506020820151816001015f6101000a81548173ffffffffffffffffffffffffffffffffffffffff021916908373ffffffffffffffffffffffffffffffffffffffff160217905550604082015181600201556060820151816003015560808201518160040190816112749190612e44565b5060a0820151816005015f6101000a81548160ff02191690831515021790555060c08201518160050160016101000a81548160ff02191690831515021790555060e08201518160050160026101000a81548160ff02191690831515021790555061010082015181600601556101208201518160070190816112f59190612e44565b50610140820151816008015f6101000a81548160ff02191690836003811115611321576113206125e3565b5b0217905550905050600282908060018154018082558091505060019003905f5260205f20015f90919091909150908161135a9190612e44565b505050505050565b815f806003811115611377576113766125e3565b5b5f8360405161138691906129a5565b90815260200160405180910390206008015f9054906101000a900460ff1660038111156113b6576113b56125e3565b5b146113f6576040517f08c379a00000000000000000000000000000000000000000000000000000000081526004016113ed90612a05565b60405180910390fd5b5f8460405161140591906129a5565b90815260200160405180910390205f015f9054906101000a900473ffffffffffffffffffffffffffffffffffffffff1673ffffffffffffffffffffffffffffffffffffffff163373ffffffffffffffffffffffffffffffffffffffff1614806114d857505f8460405161147891906129a5565b90815260200160405180910390206001015f9054906101000a900473ffffffffffffffffffffffffffffffffffffffff1673ffffffffffffffffffffffffffffffffffffffff163373ffffffffffffffffffffffffffffffffffffffff16145b611517576040517f08c379a000000000000000000000000000000000000000000000000000000000815260040161150e90612f5d565b60405180910390fd5b60015f8560405161152891906129a5565b908152602001604051809103902060050160026101000a81548160ff021916908315150217905550425f8560405161156091906129a5565b908152602001604051809103902060060181905550825f8560405161158591906129a5565b908152602001604051809103902060070190816115a29190612e44565b5060035f856040516115b491906129a5565b90815260200160405180910390206008015f6101000a81548160ff021916908360038111156115e6576115e56125e3565b5b021790555050505050565b805f806003811115611606576116056125e3565b5b5f8360405161161591906129a5565b90815260200160405180910390206008015f9054906101000a900460ff166003811115611645576116446125e3565b5b14611685576040517f08c379a000000000000000000000000000000000000000000000000000000000815260040161167c90612a05565b60405180910390fd5b5f8360405161169491906129a5565b90815260200160405180910390205f015f9054906101000a900473ffffffffffffffffffffffffffffffffffffffff1673ffffffffffffffffffffffffffffffffffffffff163373ffffffffffffffffffffffffffffffffffffffff1603611782575f8360405161170591906129a5565b9081526020016040518091039020600201543414611758576040517f08c379a000000000000000000000000000000000000000000000000000000000815260040161174f90612fc5565b60405180910390fd5b345f8460405161176891906129a5565b9081526020016040518091039020600201819055506118bc565b5f8360405161179191906129a5565b90815260200160405180910390206001015f9054906101000a900473ffffffffffffffffffffffffffffffffffffffff1673ffffffffffffffffffffffffffffffffffffffff163373ffffffffffffffffffffffffffffffffffffffff1603611880575f8360405161180391906129a5565b9081526020016040518091039020600301543414611856576040517f08c379a000000000000000000000000000000000000000000000000000000000815260040161184d90612fc5565b60405180910390fd5b345f8460405161186691906129a5565b9081526020016040518091039020600301819055506118bb565b6040517f08c379a00000000000000000000000000000000000000000000000000000000081526004016118b29061302d565b60405180910390fd5b5b505050565b60015f9054906101000a900473ffffffffffffffffffffffffffffffffffffffff1681565b6118ee61209a565b5f826040516118fd91906129a5565b9081526020016040518091039020604051806101600160405290815f82015f9054906101000a900473ffffffffffffffffffffffffffffffffffffffff1673ffffffffffffffffffffffffffffffffffffffff1673ffffffffffffffffffffffffffffffffffffffff168152602001600182015f9054906101000a900473ffffffffffffffffffffffffffffffffffffffff1673ffffffffffffffffffffffffffffffffffffffff1673ffffffffffffffffffffffffffffffffffffffff16815260200160028201548152602001600382015481526020016004820180546119e490612a50565b80601f0160208091040260200160405190810160405280929190818152602001828054611a1090612a50565b8015611a5b5780601f10611a3257610100808354040283529160200191611a5b565b820191905f5260205f20905b815481529060010190602001808311611a3e57829003601f168201915b50505050508152602001600582015f9054906101000a900460ff161515151581526020016005820160019054906101000a900460ff161515151581526020016005820160029054906101000a900460ff1615151515815260200160068201548152602001600782018054611ace90612a50565b80601f0160208091040260200160405190810160405280929190818152602001828054611afa90612a50565b8015611b455780601f10611b1c57610100808354040283529160200191611b45565b820191905f5260205f20905b815481529060010190602001808311611b2857829003601f168201915b50505050508152602001600882015f9054906101000a900460ff166003811115611b7257611b716125e3565b5b6003811115611b8457611b836125e3565b5b815250509050919050565b60015f9054906101000a900473ffffffffffffffffffffffffffffffffffffffff1673ffffffffffffffffffffffffffffffffffffffff163373ffffffffffffffffffffffffffffffffffffffff1614611c1e576040517f08c379a0000000000000000000000000000000000000000000000000000000008152600401611c1590612af0565b60405180910390fd5b805f806003811115611c3357611c326125e3565b5b5f83604051611c4291906129a5565b90815260200160405180910390206008015f9054906101000a900460ff166003811115611c7257611c716125e3565b5b14611cb2576040517f08c379a0000000000000000000000000000000000000000000000000000000008152600401611ca990612a05565b60405180910390fd5b5f83604051611cc191906129a5565b90815260200160405180910390205f015f9054906101000a900473ffffffffffffffffffffffffffffffffffffffff1673ffffffffffffffffffffffffffffffffffffffff166108fc5f85604051611d1991906129a5565b90815260200160405180910390206002015490811502906040515f60405180830381858888f19350505050158015611d53573d5f803e3d5ffd5b505f83604051611d6391906129a5565b90815260200160405180910390206001015f9054906101000a900473ffffffffffffffffffffffffffffffffffffffff1673ffffffffffffffffffffffffffffffffffffffff166108fc5f85604051611dbc91906129a5565b90815260200160405180910390206003015490811502906040515f60405180830381858888f19350505050158015611df6573d5f803e3d5ffd5b5060025f84604051611e0891906129a5565b90815260200160405180910390206008015f6101000a81548160ff02191690836003811115611e3a57611e396125e3565b5b0217905550505050565b805f806003811115611e5957611e586125e3565b5b5f83604051611e6891906129a5565b90815260200160405180910390206008015f9054906101000a900460ff166003811115611e9857611e976125e3565b5b14611ed8576040517f08c379a0000000000000000000000000000000000000000000000000000000008152600401611ecf90612a05565b60405180910390fd5b5f83604051611ee791906129a5565b90815260200160405180910390206005015f9054906101000a900460ff168015611f3b57505f83604051611f1b91906129a5565b908152602001604051809103902060050160019054906101000a900460ff165b611f7a576040517f08c379a0000000000000000000000000000000000000000000000000000000008152600401611f7190613095565b60405180910390fd5b5f8084604051611f8a91906129a5565b9081526020016040518091039020600301545f85604051611fab91906129a5565b908152602001604051809103902060020154611fc79190612b3b565b90505f84604051611fd891906129a5565b90815260200160405180910390206001015f9054906101000a900473ffffffffffffffffffffffffffffffffffffffff1673ffffffffffffffffffffffffffffffffffffffff166108fc8290811502906040515f60405180830381858888f1935050505015801561204b573d5f803e3d5ffd5b5060015f8560405161205d91906129a5565b90815260200160405180910390206008015f6101000a81548160ff0219169083600381111561208f5761208e6125e3565b5b021790555050505050565b6040518061016001604052805f73ffffffffffffffffffffffffffffffffffffffff1681526020015f73ffffffffffffffffffffffffffffffffffffffff1681526020015f81526020015f8152602001606081526020015f151581526020015f151581526020015f151581526020015f8152602001606081526020015f6003811115612129576121286125e3565b5b81525090565b5f604051905090565b5f80fd5b5f80fd5b5f80fd5b5f80fd5b5f601f19601f8301169050919050565b7f4e487b71000000000000000000000000000000000000000000000000000000005f52604160045260245ffd5b61218e82612148565b810181811067ffffffffffffffff821117156121ad576121ac612158565b5b80604052505050565b5f6121bf61212f565b90506121cb8282612185565b919050565b5f67ffffffffffffffff8211156121ea576121e9612158565b5b6121f382612148565b9050602081019050919050565b828183375f83830152505050565b5f61222061221b846121d0565b6121b6565b90508281526020810184848401111561223c5761223b612144565b5b612247848285612200565b509392505050565b5f82601f83011261226357612262612140565b5b813561227384826020860161220e565b91505092915050565b5f6020828403121561229157612290612138565b5b5f82013567ffffffffffffffff8111156122ae576122ad61213c565b5b6122ba8482850161224f565b91505092915050565b5f819050919050565b6122d5816122c3565b81146122df575f80fd5b50565b5f813590506122f0816122cc565b92915050565b5f6020828403121561230b5761230a612138565b5b5f612318848285016122e2565b91505092915050565b5f81519050919050565b5f82825260208201905092915050565b5f5b8381101561235857808201518184015260208101905061233d565b5f8484015250505050565b5f61236d82612321565b612377818561232b565b935061238781856020860161233b565b61239081612148565b840191505092915050565b5f6020820190508181035f8301526123b38184612363565b905092915050565b5f73ffffffffffffffffffffffffffffffffffffffff82169050919050565b5f6123e4826123bb565b9050919050565b6123f4816123da565b81146123fe575f80fd5b50565b5f8135905061240f816123eb565b92915050565b5f806040838503121561242b5761242a612138565b5b5f83013567ffffffffffffffff8111156124485761244761213c565b5b6124548582860161224f565b925050602061246585828601612401565b9150509250929050565b612478816122c3565b82525050565b5f6020820190506124915f83018461246f565b92915050565b5f81519050919050565b5f82825260208201905092915050565b5f819050602082019050919050565b5f82825260208201905092915050565b5f6124da82612321565b6124e481856124c0565b93506124f481856020860161233b565b6124fd81612148565b840191505092915050565b5f61251383836124d0565b905092915050565b5f602082019050919050565b5f61253182612497565b61253b81856124a1565b93508360208202850161254d856124b1565b805f5b8581101561258857848403895281516125698582612508565b94506125748361251b565b925060208a01995050600181019050612550565b50829750879550505050505092915050565b5f6020820190508181035f8301526125b28184612527565b905092915050565b6125c3816123da565b82525050565b5f8115159050919050565b6125dd816125c9565b82525050565b7f4e487b71000000000000000000000000000000000000000000000000000000005f52602160045260245ffd5b60048110612621576126206125e3565b5b50565b5f81905061263182612610565b919050565b5f61264082612624565b9050919050565b61265081612636565b82525050565b5f6101608201905061266a5f83018e6125ba565b612677602083018d6125ba565b612684604083018c61246f565b612691606083018b61246f565b81810360808301526126a3818a612363565b90506126b260a08301896125d4565b6126bf60c08301886125d4565b6126cc60e08301876125d4565b6126da61010083018661246f565b8181036101208301526126ed8185612363565b90506126fd610140830184612647565b9c9b505050505050505050505050565b5f805f806080858703121561272557612724612138565b5b5f61273287828801612401565b9450506020612743878288016122e2565b9350506040612754878288016122e2565b925050606085013567ffffffffffffffff8111156127755761277461213c565b5b6127818782880161224f565b91505092959194509250565b5f80604083850312156127a3576127a2612138565b5b5f83013567ffffffffffffffff8111156127c0576127bf61213c565b5b6127cc8582860161224f565b925050602083013567ffffffffffffffff8111156127ed576127ec61213c565b5b6127f98582860161224f565b9150509250929050565b5f6020820190506128165f8301846125ba565b92915050565b612825816123da565b82525050565b612834816122c3565b82525050565b612843816125c9565b82525050565b61285281612636565b82525050565b5f61016083015f83015161286e5f86018261281c565b506020830151612881602086018261281c565b506040830151612894604086018261282b565b5060608301516128a7606086018261282b565b50608083015184820360808601526128bf82826124d0565b91505060a08301516128d460a086018261283a565b5060c08301516128e760c086018261283a565b5060e08301516128fa60e086018261283a565b5061010083015161290f61010086018261282b565b5061012083015184820361012086015261292982826124d0565b915050610140830151612940610140860182612849565b508091505092915050565b5f6020820190508181035f8301526129638184612858565b905092915050565b5f81905092915050565b5f61297f82612321565b612989818561296b565b935061299981856020860161233b565b80840191505092915050565b5f6129b08284612975565b915081905092915050565b7f496e76616c6964207374617465000000000000000000000000000000000000005f82015250565b5f6129ef600d8361232b565b91506129fa826129bb565b602082019050919050565b5f6020820190508181035f830152612a1c816129e3565b9050919050565b7f4e487b71000000000000000000000000000000000000000000000000000000005f52602260045260245ffd5b5f6002820490506001821680612a6757607f821691505b602082108103612a7a57612a79612a23565b5b50919050565b7f4f6e6c792074686520636f6e7472616374206f776e65722063616e20706572665f8201527f6f726d207468697320616374696f6e0000000000000000000000000000000000602082015250565b5f612ada602f8361232b565b9150612ae582612a80565b604082019050919050565b5f6020820190508181035f830152612b0781612ace565b9050919050565b7f4e487b71000000000000000000000000000000000000000000000000000000005f52601160045260245ffd5b5f612b45826122c3565b9150612b50836122c3565b9250828201905080821115612b6857612b67612b0e565b5b92915050565b7f446973707574652074696d656f7574206e6f74207265616368656400000000005f82015250565b5f612ba2601b8361232b565b9150612bad82612b6e565b602082019050919050565b5f6020820190508181035f830152612bcf81612b96565b9050919050565b5f612be0826122c3565b9150612beb836122c3565b9250828203905081811115612c0357612c02612b0e565b5b92915050565b5f612c13826122c3565b9150612c1e836122c3565b9250828202612c2c816122c3565b91508282048414831517612c4357612c42612b0e565b5b5092915050565b7f4e487b71000000000000000000000000000000000000000000000000000000005f52601260045260245ffd5b5f612c81826122c3565b9150612c8c836122c3565b925082612c9c57612c9b612c4a565b5b828204905092915050565b5f819050815f5260205f209050919050565b5f6020601f8301049050919050565b5f82821b905092915050565b5f60088302612d037fffffffffffffffffffffffffffffffffffffffffffffffffffffffffffffffff82612cc8565b612d0d8683612cc8565b95508019841693508086168417925050509392505050565b5f819050919050565b5f612d48612d43612d3e846122c3565b612d25565b6122c3565b9050919050565b5f819050919050565b612d6183612d2e565b612d75612d6d82612d4f565b848454612cd4565b825550505050565b5f90565b612d89612d7d565b612d94818484612d58565b505050565b5b81811015612db757612dac5f82612d81565b600181019050612d9a565b5050565b601f821115612dfc57612dcd81612ca7565b612dd684612cb9565b81016020851015612de5578190505b612df9612df185612cb9565b830182612d99565b50505b505050565b5f82821c905092915050565b5f612e1c5f1984600802612e01565b1980831691505092915050565b5f612e348383612e0d565b9150826002028217905092915050565b612e4d82612321565b67ffffffffffffffff811115612e6657612e65612158565b5b612e708254612a50565b612e7b828285612dbb565b5f60209050601f831160018114612eac575f8415612e9a578287015190505b612ea48582612e29565b865550612f0b565b601f198416612eba86612ca7565b5f5b82811015612ee157848901518255600182019150602085019450602081019050612ebc565b86831015612efe5784890151612efa601f891682612e0d565b8355505b6001600288020188555050505b505050505050565b7f4e6f7420617574686f72697a65640000000000000000000000000000000000005f82015250565b5f612f47600e8361232b565b9150612f5282612f13565b602082019050919050565b5f6020820190508181035f830152612f7481612f3b565b9050919050565b7f496e636f727265637420616d6f756e74000000000000000000000000000000005f82015250565b5f612faf60108361232b565b9150612fba82612f7b565b602082019050919050565b5f6020820190508181035f830152612fdc81612fa3565b9050919050565b7f4f6e6c79206275796572206f722073656c6c65722063616e206465706f7369745f82015250565b5f61301760208361232b565b915061302282612fe3565b602082019050919050565b5f6020820190508181035f8301526130448161300b565b9050919050565b7f426f74682070617274696573206d75737420636f6e6669726d000000000000005f82015250565b5f61307f60198361232b565b915061308a8261304b565b602082019050919050565b5f6020820190508181035f8301526130ac81613073565b905091905056fea26469706673582212206a0e1d21401a3d33222d84df3bf985e31ef6872761ca9fdd9cb22b341b9d309a64736f6c63430008150033",
  "immutableReferences": {},
  "source": "// SPDX-License-Identifier: MIT\r\npragma solidity ^0.8.0;\r\n\r\ncontract Escrow {\r\n    struct EscrowDetails {\r\n        address buyer;\r\n        address seller;\r\n        uint256 buyerAmount;\r\n        uint256 sellerAmount;\r\n        string orderId;\r\n        bool isConfirmedByBuyer;\r\n        bool isConfirmedBySeller;\r\n        bool isDisputed;\r\n        uint256 disputeTimestamp;\r\n        string disputeDetails;\r\n        State currentState;\r\n    }\r\n\r\n    enum State {\r\n        Funded,\r\n        Released,\r\n        Refunded,\r\n        Disputed\r\n    }\r\n\r\n    mapping(string => EscrowDetails) public escrows;\r\n    uint256 public constant DISPUTE_TIMEOUT = 7 days;\r\n    address public contractOwner;\r\n    string[] public orderIds;\r\n\r\n    constructor() {\r\n        contractOwner = msg.sender;\r\n    }\r\n\r\n    modifier onlyBuyer(string memory _orderId) {\r\n        require(\r\n            msg.sender == escrows[_orderId].buyer,\r\n            \"Only the buyer can perform this action\"\r\n        );\r\n        _;\r\n    }\r\n\r\n    modifier onlySeller(string memory _orderId) {\r\n        require(\r\n            msg.sender == escrows[_orderId].seller,\r\n            \"Only the seller can perform this action\"\r\n        );\r\n        _;\r\n    }\r\n\r\n    modifier onlyContractOwner() {\r\n        require(\r\n            msg.sender == contractOwner,\r\n            \"Only the contract owner can perform this action\"\r\n        );\r\n        _;\r\n    }\r\n\r\n    modifier inState(string memory _orderId, State expectedState) {\r\n        require(\r\n            escrows[_orderId].currentState == expectedState,\r\n            \"Invalid state\"\r\n        );\r\n        _;\r\n    }\r\n\r\n    function getAllOrderIds() external view returns (string[] memory) {\r\n        return orderIds;\r\n    }\r\n\r\n    function createEscrow(\r\n        address _seller,\r\n        uint256 _buyerAmount,\r\n        uint256 _sellerAmount,\r\n        string memory _orderId\r\n    ) external {\r\n        EscrowDetails memory newEscrow;\r\n        newEscrow.buyer = msg.sender;\r\n        newEscrow.seller = _seller;\r\n        newEscrow.buyerAmount = _buyerAmount;\r\n        newEscrow.sellerAmount = _sellerAmount;\r\n        newEscrow.orderId = _orderId;\r\n        newEscrow.currentState = State.Funded;\r\n\r\n        escrows[_orderId] = newEscrow;\r\n        orderIds.push(_orderId);\r\n    }\r\n\r\n    function deposit(\r\n        string memory _orderId\r\n    ) external payable inState(_orderId, State.Funded) {\r\n        if (msg.sender == escrows[_orderId].buyer) {\r\n            require(msg.value == escrows[_orderId].buyerAmount, \"Incorrect amount\");\r\n            escrows[_orderId].buyerAmount = msg.value;\r\n        } else if (msg.sender == escrows[_orderId].seller) {\r\n            require(msg.value == escrows[_orderId].sellerAmount, \"Incorrect amount\");\r\n            escrows[_orderId].sellerAmount = msg.value;\r\n        } else {\r\n            revert(\"Only buyer or seller can deposit\");\r\n        }\r\n    }\r\n\r\n    function confirmReceipt(string memory _orderId) external {\r\n        require(\r\n            escrows[_orderId].currentState == State.Funded ||\r\n                escrows[_orderId].currentState == State.Disputed,\r\n            \"Invalid state\"\r\n        );\r\n\r\n        if (msg.sender == escrows[_orderId].buyer) {\r\n            escrows[_orderId].isConfirmedByBuyer = true;\r\n        } else if (msg.sender == escrows[_orderId].seller) {\r\n            escrows[_orderId].isConfirmedBySeller = true;\r\n        }\r\n\r\n        if (\r\n            escrows[_orderId].isConfirmedByBuyer &&\r\n            escrows[_orderId].isConfirmedBySeller\r\n        ) {\r\n            releaseFunds(_orderId);\r\n        }\r\n    }\r\n\r\n    function releaseFunds(\r\n        string memory _orderId\r\n    ) internal inState(_orderId, State.Funded) {\r\n        require(\r\n            escrows[_orderId].isConfirmedByBuyer &&\r\n                escrows[_orderId].isConfirmedBySeller,\r\n            \"Both parties must confirm\"\r\n        );\r\n        uint256 totalAmount = escrows[_orderId].buyerAmount + escrows[_orderId].sellerAmount;\r\n        payable(escrows[_orderId].seller).transfer(totalAmount);\r\n        escrows[_orderId].currentState = State.Released;\r\n    }\r\n\r\n    function refund(\r\n        string memory _orderId\r\n    ) external onlyContractOwner inState(_orderId, State.Funded) {\r\n        payable(escrows[_orderId].buyer).transfer(escrows[_orderId].buyerAmount);\r\n        payable(escrows[_orderId].seller).transfer(escrows[_orderId].sellerAmount);\r\n        escrows[_orderId].currentState = State.Refunded;\r\n    }\r\n\r\n    function dispute(\r\n        string memory _orderId,\r\n        string memory _disputeDetails\r\n    ) external inState(_orderId, State.Funded) {\r\n        require(\r\n            msg.sender == escrows[_orderId].buyer ||\r\n                msg.sender == escrows[_orderId].seller,\r\n            \"Not authorized\"\r\n        );\r\n        escrows[_orderId].isDisputed = true;\r\n        escrows[_orderId].disputeTimestamp = block.timestamp;\r\n        escrows[_orderId].disputeDetails = _disputeDetails;\r\n        escrows[_orderId].currentState = State.Disputed;\r\n    }\r\n\r\n    function resolveDispute(\r\n    string memory _orderId,\r\n    address faultParty\r\n) external onlyContractOwner inState(_orderId, State.Disputed) {\r\n    require(\r\n        block.timestamp >= escrows[_orderId].disputeTimestamp + DISPUTE_TIMEOUT,\r\n        \"Dispute timeout not reached\"\r\n    );\r\n\r\n    uint256 buyerAmount = escrows[_orderId].buyerAmount;\r\n    uint256 sellerAmount = escrows[_orderId].sellerAmount;\r\n\r\n    uint256 fee;\r\n    uint256 amountToTransferToSeller;\r\n    uint256 amountToReturnToBuyer;\r\n\r\n    if (faultParty == escrows[_orderId].buyer) {\r\n        uint256 amountWithheld = buyerAmount - sellerAmount;\r\n        fee = (amountWithheld * 10) / 100;\r\n        amountToTransferToSeller = sellerAmount + ((amountWithheld * 90) / 100);\r\n\r\n        payable(contractOwner).transfer(fee);\r\n        payable(escrows[_orderId].seller).transfer(amountToTransferToSeller);\r\n        payable(escrows[_orderId].buyer).transfer(amountWithheld - fee);\r\n    } else if (faultParty == escrows[_orderId].seller) {\r\n        \r\n        fee = (sellerAmount * 10) / 100;\r\n        uint256 sellerRefund = (sellerAmount * 90) / 100;\r\n\r\n        payable(contractOwner).transfer(fee);\r\n        payable(escrows[_orderId].seller).transfer(sellerRefund);\r\n        payable(escrows[_orderId].buyer).transfer(buyerAmount); \r\n    } else {\r\n        \r\n        amountToReturnToBuyer = buyerAmount - sellerAmount;\r\n        amountToTransferToSeller = sellerAmount + (buyerAmount - sellerAmount);\r\n\r\n        payable(escrows[_orderId].buyer).transfer(amountToReturnToBuyer);\r\n        payable(escrows[_orderId].seller).transfer(amountToTransferToSeller);\r\n    }\r\n\r\n    escrows[_orderId].currentState = State.Released;\r\n    escrows[_orderId].isDisputed = false;\r\n}\r\n\r\n\r\n    function getEscrowDetails(\r\n        string memory _orderId\r\n    ) external view returns (EscrowDetails memory) {\r\n        return escrows[_orderId];\r\n    }\r\n}\r\n",
  "sourcePath": "D:\\hackahton\\rwamarketplace\\contracts\\main.sol",
  "compiler": {
    "name": "solc",
    "version": "0.8.21+commit.d9974bed.Emscripten.clang"
  },
  "schemaVersion": "3.4.16",
  "updatedAt": "2024-08-19T06:43:48.608Z",
  "devdoc": {
    "kind": "dev",
    "methods": {},
    "version": 1
  },
  "userdoc": {
    "kind": "user",
    "methods": {},
    "version": 1
  }
}